:020000040800F2
:10000000C81D00209D010008872D0008292B00082D
:10001000852D0008CF050008E93C0008000000001D
:100020000000000000000000000000006738000829
:10003000F906000800000000892D00086938000852
:10004000B7010008B7010008B7010008B7010008B0
:10005000B7010008B7010008B7010008B7010008A0
:10006000B7010008B7010008B7010008B701000890
:10007000B7010008B7010008B7010008B701000880
:10008000B7010008B7010008B7010008B701000870
:10009000D1050008B7010008B7010008B701000842
:1000A000B7010008B7010008B7010008B701000850
:1000B000B7010008B7010008B7010008B701000840
:1000C000B7010008B7010008B7010008B701000830
:1000D000B7010008DD3C0008B7010008B7010008BF
:1000E000B7010008B7010008B7010008B701000810
:1000F000B7010008B7010008B7010008B701000800
:10010000B7010008212E0008B7010008B701000858
:10011000B7010008B7010008B7010008B7010008DF
:10012000B7010008B7010008B70100083106000850
:10013000B7010008B7010008B7010008B7010008BF
:10014000DD050008B7010008B7010008B701000885
:10015000B70100083D06000849060008B70100087D
:10016000B7010008B7010008B7010008B70100088F
:10017000B7010008B7010008B7010008000000003F
:10018000B7010008B7010008DFF80CD000F0AAF8AA
:1001900000480047A1550008C81D002006488047B8
:1001A00006480047FEE7FEE7FEE7FEE7FEE7FEE75C
:1001B000FEE7FEE7FEE7FEE73D390008890100089B
:1001C0002DE9F05F0546002092469B46884606468C
:1001D000814640241BE0284641464746224600F01F
:1001E00070F853465A46C01A914110D3114618462A
:1001F000224600F057F82D1A67EB01084F462246B9
:100200000120002100F04EF817EB00094E41201E9E
:10021000A4F10104DFDC484631462A464346BDE8E6
:10022000F09F40EA01039B0703D009E008C9121FB1
:1002300008C0042AFAD203E011F8013B00F8013BA0
:10024000521EF9D27047D2B201E000F8012B491ECC
:10025000FBD270470022F6E710B513460A46044663
:100260001946FFF7F0FF204610BD421C10F8011B95
:100270000029FBD1801A704730B50B46014600209B
:100280002022012409E021FA02F59D4205D303FA58
:1002900002F5491B04FA02F52844151EA2F10102D9
:1002A000F1DC30BD202A04DB203A00FA02F1002004
:1002B00070479140C2F1200320FA03F319439040A4
:1002C0007047202A04DB203A21FA02F0002170470F
:1002D00021FA02F3D040C2F12002914008431946AE
:1002E00070470000064C074D06E0E06840F001034F
:1002F00094E8070098471034AC42F6D3FFF748FF64
:10030000000903082009030830B5ADF2844D1C2212
:1003100041A10DF26440FFF784FF464C207801288C
:1003200004D002282DD003283ED06AE0012242A149
:100330008CA804F039FB010001D040A05FE045A08B
:1003400003F02CFD13220DF26441684604F060FBBB
:10035000010001D044A052E049A003F01FFD02209B
:100360002070840221464C48FFF774FF22464A4918
:100370004A4805F0D5FA494805F0A6FA014648A0D2
:100380003DE0464805F078FA6060802839DB80223D
:100390004849424805F0DCFA0DF590638022454952
:1003A000684604F08FFC2CE03C4805F065FA0546F1
:1003B0006060012811DD80213E48FFF74BFF2A468F
:1003C0003C49364805F0C4FA0DF59063802239495E
:1003D000684604F077FC04202070684604F0CEFAEA
:1003E000010001D034A00AE03AA003F0D7FC0122BA
:1003F00011A1002004F0D8FA010006D03CA003F0BF
:10040000CDFC00200DF2844D30BD3EA003F0C6FCB3
:10041000052020700120F5E74F42445F4469616781
:100420006E6F737469635F426F7850726A2E62698F
:100430006E00000070000020303A0000206D6F75E3
:100440006E74206572726F72203A202564200D0A46
:1004500000000000206D6F756E7420737563657306
:1004600073212121200D0A00206F70656E206669BE
:100470006C65206572726F72203A2025640D0A0047
:10048000206F70656E2066696C65207375636365A7
:1004900073732121210D0A001C050020A0000020FB
:1004A000C4DCD0B4B5C4BFD5BCE4203A25640D0A81
:1004B000000000001C0D002020636C6F7365206637
:1004C000696C65206572726F72203A2025640D0A8E
:1004D0000000000020636C6F73652066696C652006
:1004E000737563636573732121210D0A0000000099
:1004F000206D6F756E74206572726F72203A2025C0
:10050000640D0A00206D6F756E7420636C6F7365E7
:1005100020737563657373212121200D0A0000008B
:10052000704700000146014801F02EBC0001002088
:1005300010B5044801F03AFC042801D0012010BD98
:10054000002010BD0001002010B500F015F80128B2
:1005500001D0012010BD074801F042FD040006D182
:100560004FF40061034801F0B5FA00B101242046C0
:1005700010BD00000001002008B501208DF800002A
:100580009DF8000008BD000038B500240093134614
:100590000A460146034801F01BFE00B10124204633
:1005A00038BD0000000100207047000038B500246D
:1005B000009313460A460146034801F0FDFE00B1D0
:1005C0000124204638BD0000000100207047FEE7EE
:1005D000014800F0C6B90000B0000020014800F05A
:1005E000C0B90000D80000200FB4002110B5DDE92B
:1005F0000924936813B1042B04D008E01368059311
:10060000002302E05368059301238DF8103012692E
:10061000069203AB625C0B44491CC9B21A740829E8
:10062000F7D3182203A9FFF7FCFD10BC5DF814FBFB
:10063000014800F07DBC0000C8010020014800F026
:1006400077BC000028020020014800F071BC0000C7
:100650008802002001681823CAB2103AB2FBF3F2F4
:10066000054B6FF30901032A9B5CC36500D9091D83
:100670008165084670470000005D000810B501461E
:1006800000208B698A6A4FF0C07453B1B3F5005FE4
:1006900015D072B1012A0CD0022A0AD0032A09D13E
:1006A00004E01AB1012A06D0022A03D1C96AC9019D
:1006B00000D5012010BDC96AA142FAD010BD002AA0
:1006C000F7D0012AF2D0022AF3D0032AF3D010BDCA
:1006D00030B50468256825F48025256004686360CA
:1006E0008368402B036803D099600068C26030BD06
:1006F0009A600068C16030BD704772B6FEE70022A4
:10070000AFF3008010B4844601200E4B5C7A002CBD
:1007100016D1587A1C54587A03EB8000C0F804C0F4
:10072000587A03F1080C00F80C20587A421C5A72CF
:10073000303008703A2048702F208870CC7000202C
:1007400010BC7047BC0D002090F82020012A07D073
:10075000022A05D0416A41F480214162012070479C
:10076000006842690A4342610020704710B590F862
:100770002020012A07D0022A05D0416A41F48021B5
:100780004162012010BD3B48D0F8002242F0010236
:10079000C0F80022D0F8002222F47C52C0F80022D7
:1007A000D0F800224B6A42EA0322C0F800220A7DF8
:1007B00002F01F0301229A40D0F81C329343C0F884
:1007C0001C32CB69B3B9D0F80C329343C0F80C3269
:1007D0008C894B6864F31F434C6900EBC404C4F874
:1007E00040320C890B6864F31F434C6900EBC4046E
:1007F000C4F84432CB69012B16D1D0F80C32134324
:10080000C0F80C320C884B6864F31F434C6900EB52
:10081000C404C4F840320C89CB6864F31F434C69AC
:1008200000EBC404C4F844328B69002BD0F80432C6
:100830000ED01343C0F804320B69002BD0F81432E9
:1008400008D01343C0F81432096A012904D008E023
:100850009343EFE79343F5E7D0F81C121143C0F838
:100860001C12D0F8001221F00101C0F80012002083
:1008700010BD000000640040704730B590F8204083
:10088000012C05D0022C03D0416A41F480215DE0A7
:100890000468002955D02469A40754D04FF4D874B3
:1008A000056804EB01142D5915F0040595600568E1
:1008B0002D594ED0ED08556005682C5904F00204FE
:1008C000D4604FF4DA74056804EB01142D5905F077
:1008D0000F05156105682D59C5F307259561056854
:1008E0002C59240C54614FF4DC72046802EB0112A1
:1008F000A4581C700468A458240A5C700468A458A6
:10090000240C9C700468A258120EDA704FF4DE7248
:10091000046802EB0112A4581C710468A458240A4C
:100920005C710468A458240C9C710468A258120ECF
:10093000DA71006881B1016941F020010161002094
:1009400030BDE468A8E7416A41F40011416201202A
:1009500030BD6D0D1560AFE7C16841F02001C16089
:10096000EDE72DE9F05F0546006800244669D0F800
:1009700004908768D0F80CB0D0F810A0D0F8188098
:10098000F10748D0F90714D001218160B80703D5D9
:10099000284600F06CFA0CE0780702D54FF40064AA
:1009A00007E0380702D54FF4805402E0284600F0F3
:1009B0005DFAF80516D529684FF480708860B8058F
:1009C00003D5284600F055FA0CE0780502D544F42A
:1009D000005407E0380502D544F4804402E028467C
:1009E00000F046FAF80316D529684FF48030886085
:1009F000B80303D5284600F03EFA0CE0780302D590
:100A000044F4004407E0380302D544F4803402E0A3
:100A1000284600F02FFA300707D55FEACB6004D5EF
:100A20002968102044F40074C86070074FF008076C
:100A300007D55FEA0B7004D52868C760284600F028
:100A40009BF9B00706D52868C068800702D0284601
:100A500000F094F9700607D55FEACA6004D52968EA
:100A6000102044F480640861B00607D55FEA0A707C
:100A700004D528680761284600F0C8F9F00606D5B5
:100A800028680069800702D0284600F0C0F9B0034A
:100A900008D55FEAC96005D5296810204860284656
:100AA00000F0B6F9F00307D55FEA097004D52868AD
:100AB0004760284600F0E0F9300446D55FEA497007
:100AC00040D5F00504D55FEAC87001D044F00104B8
:100AD000B00504D55FEA887001D544F002047005C2
:100AE00004D55FEA487001D544F00404300529D5E7
:100AF00018F0700F26D008F07000402815D006DCE2
:100B0000102809D020280AD0302816D10AE0502811
:100B10000ED0602811D10EE044F008040DE044F03E
:100B200010040AE044F0200407E044F0400404E02C
:100B300044F0800401E044F480742868816921F065
:100B400070018161296804204860002C05D0686A22
:100B5000204368622846FFF78FFEBDE8F09F70B51E
:100B6000040003D094F8200010B104E0012070BD0F
:100B7000204600F081F82068016841F00101016021
:100B800000F060FC0546052604E000F05BFC401B1D
:100B90000A2811D820684068C007F6D0206801688C
:100BA00021F00201016000F04DFC05460BE000F071
:100BB00049FC401B0A2806D9606A40F40030606294
:100BC00084F82060D2E7206840688007EFD4207E58
:100BD0000128206801683DD021F080010160607E1D
:100BE00001282068016838D021F040010160A07E12
:100BF00001282068016833D021F020010160E07EE7
:100C00000128206801682ED041F010010160207F8A
:100C100001282068016829D021F008010160607F67
:100C200001282068016824D021F004010160D4E982
:100C300002010843D4E90412114308436168491EC4
:100C400008432168C86100206062012084F8200008
:100C5000002070BD41F08001C0E741F04001C5E7D0
:100C600041F02001CAE721F01001CFE741F008016F
:100C7000D4E741F00401D9E7F0B587B00446142168
:100C80006846FFF7E7FA374B3748DFF8D4E01968D2
:100C9000D4F800C00124344A022503260927103065
:100CA000491CF44524D11960012907D1016841F09C
:100CB00000710160006800F000700590106840F05D
:100CC00001001060106802AB00F0010005904FF4C5
:100CD000C050CDE9000583E8D0006946234800F004
:100CE000ABFA00221146142000F01CFC142033E063
:100CF000DFF87CE0F44531D1D0F800C04CF0806CD6
:100D0000C0F800C0D0F800C001290CF0806CCDF80C
:100D100014C0196007D1016841F0007101600068DA
:100D200000F000700590106840F00200106010683C
:100D300002AB00F0020005904FF44050CDE90005F1
:100D400083E8D00069460B4800F076FA002211468D
:100D5000402000F0E7FB402000F0D6FB07B0F0BDDC
:100D6000006400406C000020303802400000024067
:100D700000680040000402407047000030B595B0A4
:100D800004460CAB05AA0021FFF777FD002837D1F8
:100D9000022240211B4801F0C8FE1B481A4A05AB3D
:100DA0000168183A0CA8A1420FD1CDE9033002F135
:100DB000240529CD8DE82900136AD2690EA8FFF712
:100DC00013FC18220EA9104814E00F4918390968BD
:100DD000A14211D1CDE9033002F10C0529CD8DE8F6
:100DE0002900936852680EA8FFF7FEFB06481822F8
:100DF0000EA91838FFF715FA02212046FFF7A4FCC8
:100E000015B030BD00140240480000207047704704
:100E10007047000070B5044690F82000012804D007
:100E2000606A40F40020606218E0022084F820002C
:100E30002068016821F00101016000F003FB054614
:100E40000EE000BF00F0FEFA401B0A2808D9606AD5
:100E500040F400306062052084F82000012070BD5D
:100E600020684068C007EDD1606270BD7047704770
:100E7000704770477047704770472DE9F04104464E
:100E8000876D00F0DFFA064694F835000025022849
:100E900006D08020606584F834500120BDE8F081E0
:100EA0002068016821F0160101602068416921F085
:100EB00080014161206C08B9A06C20B120680168F4
:100EC00021F0080101602068016821F00101016042
:100ED0000CE000F0B7FA801B052807D920206065D8
:100EE000032084F8350084F83450D7E72068006880
:100EF000C007EED194F85C103F208840B860012014
:100F000084F8350084F834500020C7E790F8351095
:100F1000022903D08021416501207047052180F816
:100F200035100068016821F0010101600020704760
:100F30002DE9F84304464FF00009CDF800906348CE
:100F40004FF41651A56D0068B0FBF1F72E6894F8C8
:100F50005C10082000FA01F131420FD021680A68C4
:100F600052070BD50A6822F004020A6094F85C105C
:100F70008840A860606D40F00100606594F85C10E6
:100F80004FF0010808FA01F0304208D021684969A1
:100F9000090604D5A860606D40F00200606594F811
:100FA0005C1004208840304208D021680968890715
:100FB00004D5A860606D40F00400606594F85C1092
:100FC00010208840304218D021680968090714D5DC
:100FD000A86020680168490304D50068000308D5AB
:100FE000A16C07E00168C90503D4016821F008017C
:100FF0000160216C09B12046884794F85C102020DC
:101000008840304231D021680968C9062DD5A860D2
:1010100094F8350005282068016806D0490347D5B3
:10102000006800031DD4616C1CE021F01601016012
:101030002068416921F080014161206C08B9A06CF1
:1010400020B12068016821F00801016094F85C106B
:101050003F208840A86084F8358084F83490216D62
:101060001FE0E16B09B120468847606D00282BD056
:10107000606DC00714D0052084F835002068016831
:1010800021F0010101600098401C0090B84203D893
:1010900020680068C007F6D184F8358084F8349061
:1010A000E16C002910D001B02046BDE8F0430847AC
:1010B0000168C905D5D4016821F01001016084F8E8
:1010C000358084F83490CCE7BDE8F88390000020A8
:1010D0002DE9F041044600F0B5F906465CB1022066
:1010E00084F83500002584F834502068016821F028
:1010F000010101600DE00120BDE8F08100F0A2F9DE
:10110000801B052805D920206065032084F8350060
:10111000F2E720680068C007F0D122681168204813
:101120000140D4E901031843D4E90336334318439B
:1011300063691843A3691843E3691843236A184392
:101140000843616A042903D1D4E90B131943084306
:10115000106020684069666A20F0070130460E433F
:10116000012704280CD1A06A0643E06A40B120465A
:10117000FFF784FA20B14020606584F83570BAE743
:10118000206846612046FFF765FA94F85C203F210D
:1011900091408160656584F835700020ACE70000FF
:1011A0003F8010F02DE9F0410446866D90F8340040
:1011B000002501280DD0012084F8340094F8357002
:1011C0000020012F07D084F8340002252846BDE80E
:1011D000F0810220FBE7022784F835706065204625
:1011E000FFF776FA94F85C103F208840B0602068E2
:1011F000016841F016010160206C20B1206801688F
:1012000041F0080101602068016841F001010160BE
:10121000DCE7000070B5044600F014F90546601CD8
:1012200002D004480078044400F00CF9401BA042AE
:10123000FAD370BD840000202DE9F84FDFF8BCA17F
:101240000022012503264FF00F090AF1040BAAF131
:10125000040E00BF0B6805FA02F42340A34270D1CC
:101260000F7907F00307012F01D0022F16D18768ED
:101270004FEA420806FA08FC27EA0C07D1F80CC02E
:101280000CFA08FC4CEA070CC0F808C04768A743F2
:101290000C79C4F3001494403C4344600C79E4435B
:1012A000A4070AD0C4684FEA420C06FA0CF7BC4304
:1012B0008F6807FA0CF72743C7600C7904F0030422
:1012C000022C12D1D40800EB840CDCF82040570724
:1012D000FF0E09FA07F824EA0804D1F8108008FA8A
:1012E00007F848EA0408CCF8208004684FEA420C6A
:1012F00006FA0CF7BC430F7907F0030707FA0CF75F
:10130000274307604C6814F4403F70D03C4C27687A
:1013100047F480472760246822F0030704F48044E0
:101320000094384C07EB040CDCF8084897074FEAA8
:10133000177809FA08F7BC43334FB84202D10027A7
:1013400024E054E0314FB84201D101271EE0304F74
:10135000B84201D1022719E02E4FB84201D103272C
:1013600014E02D4FB84201D104270FE02B4FB842B3
:1013700001D105270AE02A4FB84201D1062705E02E
:10138000284FB84201D1072700E0082707FA08F7DD
:101390002743CCF80878DAF800405746D1F804C063
:1013A0009C435FEACC2C00D51C433C60DBF800403A
:1013B0005F46D1F804C09C435FEA8C2C00D51C43E7
:1013C0003C60DEF800407746D1F804C09C435FEAF9
:1013D0008C3C00D51C433C60084F083F3C68D1F86A
:1013E00004C09C435FEACC3C00D51C433C60521CCB
:1013F000102AFFF42FAFBDE8F88F0000083C014031
:101400004438024000300140000002400004024025
:1014100000080240000C024000100240001402408C
:1014200000180240001C0240426921EA02030A40FF
:1014300043EA0241816170470AB181617047090442
:10144000FBE700000148806870470000840000202E
:10145000024881680278114481607047840000204E
:101460000B4810B5016841F400710160016841F456
:1014700080610160016841F480710160032000F027
:1014800071F8002000F006F800F024F8002010BDEC
:10149000003C024070B50D4D04464FF47A71287837
:1014A000B1FBF0F00A490968B1FBF0F001F05AF81D
:1014B00048B9102C07D200222146501E00F032F805
:1014C00000206C6070BD012070BD00008400002011
:1014D000900000200B4882B0016841F48041016017
:1014E000006800F4804000900648001F016841F049
:1014F00080510160006800F080500090052002B02B
:1015000000F030B844380240002809DB00F01F0228
:10151000012191404009800000F1E020C0F8001155
:1015200070470000F0B40E4B1B680C46C3F3022357
:10153000C3F10705042D00D90425191D072901D27F
:10154000002300E0DB1E012606FA05F1491E2140BA
:1015500099409E40761E16403143F0BC02F02EBCEE
:101560000CED00E0064900F0070208684FF6FF03A3
:10157000184040EA0220034A104308607047000008
:101580000CED00E00000FA052DE9F0470E460500DD
:1015900065D0DFF81481D8F80000F7B200F007003A
:1015A000B04207D288F80070D8F8000000F00700B9
:1015B000B04254D128683D4C810712D5400703D56D
:1015C000206840F4E05020602878000703D52068A8
:1015D00040F4604020602068A96820F0F0000843D3
:1015E00020602878C0072DD0304968680839012864
:1015F00012D0022813D0032811D0096889070029C6
:101600002DDA216821F0030101432160FFF71AFF61
:10161000814641F2883A0EE009688903EFE70968DC
:101620008901ECE7FFF70EFFA0EB0901514502D954
:101630000320BDE8F0872068696800F00C00B0EB7B
:10164000810FEFD1D8F80010404601F00701B142F8
:1016500007D90770006800F00700B04201D00120F0
:10166000E7E72878400705D52068E96820F4E050CE
:10167000084320602878000706D52068296920F4EF
:10168000604040EAC100206000F038F82168084A54
:10169000C1F30311515CC840064908600648006860
:1016A000FFF7F8FE0020C4E7003C02400838024083
:1016B000085D0008900000208800002004480549CB
:1016C00000680968044AC1F38221515CC840704730
:1016D0009000002008380240185D000804480549C1
:1016E00000680968044AC1F34231515CC840704740
:1016F0009000002008380240185D0008154810B519
:10170000006810F00C02144813D01449042A0FD0BA
:10171000082A0ED10F4C241F2268236802F03F02D2
:101720005B0207D52068C0F38810A0FB010106E02A
:10173000084610BD2168C1F38811A1FB00010023F8
:10174000FEF73EFD2168C1F30141491C4900B0FB91
:10175000F1F010BD083802400024F40040787D010B
:101760002DE9F84F04006ED02078DFF84C93C007C5
:10177000A9F104054AD009F104000168C1F381010F
:10178000012908D00068C0F3810002280AD1D9F8E5
:101790000000400206D52868800337D5606800281D
:1017A000E1D033E06068B0F5803F10D0B0F5A02FF5
:1017B000286810D020F480302860286820F4802029
:1017C00028606068A8B1FFF73DFE06460DE0286876
:1017D00040F48030F4E740F480202860F7E700BF51
:1017E000FFF730FE801B642873D828688003F7D584
:1017F0000CE0FFF727FE064605E000BFFFF722FEDC
:10180000801B6428F0D828688003F7D42078DFF89C
:10181000AC8280074FF0000A3ED5A748001D016842
:1018200011F00C0F08D00068C0F3810002280BD122
:10183000D9F80000400207D42868800716D5E06870
:10184000012800D112E033E1E068B8B10120C8F806
:101850000000FFF7F7FD064605E000BFFFF7F2FDC9
:10186000801B0228C0D828688007F7D5286821691E
:1018700020F0F80040EAC10028600DE0C8F800A0A0
:10188000FFF7E0FD064604E0FFF7DCFD801B0228C1
:101890001FD828688007F7D42078000722D5864F04
:1018A00087486169703771B101210160FFF7CAFD96
:1018B000064604E0FFF7C6FD801B022809D83868F9
:1018C0008007F7D50EE0C0F800A0FFF7BBFD064685
:1018D00005E082E0FFF7B6FD801B02287DD838685E
:1018E0008007F7D42078400768D5DFF8CCB100270F
:1018F0000BF13C0BDBF80000C0000BD4DBF8001050
:1019000041F08051CBF80010DBF80000012700F017
:10191000805000906B4E3068C00510D4306840F4A1
:1019200080703060FFF78EFD009005E0FFF78AFDC4
:101930000099401A022850D83068C005F6D55E4E8E
:10194000A0686C3601280FD00528306810D020F030
:1019500001003060306820F004003060A068B8B149
:10196000FFF770FD00900FE0306840F00100F4E7F1
:1019700040F004003060F7E7FFF764FD0099411A7A
:1019800041F28830814266D830688007F4D50EE095
:10199000FFF758FD009007E0FFF754FD0099411A4A
:1019A00041F28830814256D830688007F4D42FB194
:1019B000DBF8001021F08051CBF80010A069C8B30B
:1019C0003D49091D0968C1F3810102294AD0022855
:1019D000504607D0C8F8600000E03CE0FFF732FD59
:1019E00004463BE04746C8F86000FFF72BFD06467B
:1019F00005E000BFFFF726FD801B02282BD82868D2
:101A00008001F7D4D4E907010843A16A2E4A4908A6
:101A100002EB0141626A41EA8211084394F82C10FA
:101A200040EA0161C9F8001001203866FFF70AFD9D
:101A3000044606E03EE000BFFFF704FD001B02285D
:101A400009D828688001F7D534E000BFFFF7FAFC19
:101A5000001B022802D90320BDE8F88F2868800106
:101A6000F4D427E00128F7D0D9F80000E26900F4A7
:101A7000800191421CD1226A00F03F01914217D1AE
:101A800047F6C071626A0140B1EB821F10D1A26AB1
:101A90004FF0FF3300F4403103EB5202B1EB024F41
:101AA00006D194F82C1000F07060B0EB016F01D0FB
:101AB0000120D1E70020CFE7043802400000474270
:101AC000800E4742007000400000FFFF10B5FEF797
:101AD00027FD10BD2DE9FE430446002603200D46D8
:101AE00084F83400606C03285ED0B5F5805F5BD06D
:101AF0004FF4006700204FF08068BD421FD181463F
:101B0000009001900021206801F086F9800113D433
:101B10006946204601F008FD07000DD101984003F9
:101B200034D5B4F850000104206801F0ADF9070085
:101B300002D10221206823E0A06B384328E01DB1C8
:101B4000A06B40F0006023E08146009001900021EE
:101B5000206801F061F98001EED46946204601F069
:101B6000E3FC0700E8D10198C0030FD5B4F850009A
:101B70000104206801F088F90700DDD10021206808
:101B800001F0CFF90700D7D14F46D5E74746D3E755
:101B9000A063A06B144F4FF0010848B12068876321
:101BA00084F8348001260EE0A06B40F08050EFE70F
:101BB000211DD4E9050C0EC9CDE90050CDF808C0AF
:101BC000206801F033F94FF40071206801F090F9BA
:101BD00028B121688F63A16B0143A163012684F8BA
:101BE00034803046BDE8FE83FF05400070470000AA
:101BF000F0B5426E920F0A70426EC2F383624A7071
:101C0000426EC2F301628A70426E120CCA70B0F862
:101C10006420120A0A7190F864204A71826E120DD3
:101C2000CA80826EC2F303420A72B0F86820C2F31F
:101C3000C0324A72B0F86820C2F380328A72B0F8BB
:101C40006820C2F34032CA72B0F86820C2F3003292
:101C50000A7300264E73426C4FF40075012462B182
:101C6000012A3AD0026847499163816B41F0805163
:101C7000816380F834400120F0BDB0F86820C36E65
:101C80009205120D42EA93720A61C26EC2F3C262F9
:101C90000A75C26EC2F302624A75C26EC2F3425244
:101CA0008A75C26EC2F38242CA75C26EC2F3C23274
:101CB0000A760A69521C42650B7E03F007039B1CDF
:101CC0009A4042650B7A03F00F0704FA07F3836525
:101CD0005B0A5A43C0E917250EE090F86820C36EEE
:101CE0009206920A42EA13420A610A69521C92025F
:101CF0004265C0E91652056630F86C2FC2F3803297
:101D000001F8192F0288C2F3C6124A70027802F055
:101D10007F028A704268D20FCA704268C2F3417271
:101D20000A714268C2F382624A714268C2F3835206
:101D30008A714268C2F34052CA710E724268C2F39D
:101D400000424A728288C2F3C0328A728288C2F329
:101D50008032CA728288C2F340320A738288C2F328
:101D600000324A738288C2F381228A738288C2F366
:101D70000122CA730079C0F3460008744C74002035
:101D8000F0BD0000FF054000426C0A60826C4A60B2
:101D9000C26C8A60026DCA60426D0A61826D4A61DE
:101DA000C26D8A61006EC8610020704770B504463C
:101DB000B0F8500000250104206801F09AF918B12C
:101DC000A16B0143A16304E00021206801F024F825
:101DD0000546C5F3432070BDF8B5056B04460068A1
:101DE000416B09041BD5290719D5D4E90A56002EE1
:101DF00014D00027206801F02FF805F8010B010A24
:101E000005F8011B010C05F8021B000E361F7F1C94
:101E100005F8010C082FEDD3C4E90A56F8BD416B53
:101E20004FF00006C9054FF0010744D53902816320
:101E30002068C16B4CF23A329143C1632068C16A99
:101E400021F00101C16228071DD515F0220F09D02C
:101E5000206801F07FF928B1A16B0143A1632046FE
:101E6000FFF7C4FE216840F23A50886384F834706A
:101E70002663A80703D0204600F096FAF8BD204656
:101E800000F096FAF8BD2806FCD5A80609D520680A
:101E900001F060F928B1A16B0143A1632046FFF76F
:101EA000A5FEA807EED12068C16A21F00801C16231
:101EB00084F83470E3E7416B490424D5290722D51F
:101EC000D4E90856002EDDD05FF0000715F8010BAD
:101ED000009015F8011B361F40EA0120009015F80C
:101EE000021B40EA0140009015F8011C40EA016025
:101EF00000906946206800F0C2FF7F1C082FE5D3E0
:101F0000C4E90856F8BD416B40F23A221142F9D0BB
:101F1000416B890703D5A16B41F00201A163416BBD
:101F2000090703D5A16B41F00801A163416B890644
:101F300003D5A16B41F02001A163416BC90603D514
:101F4000A16B41F01001A163416B890503D5A16B21
:101F500041F00801A16340F23A7181632068C16BCE
:101F600040F23A329143C163206801F0F3F8A16B6B
:101F70000843A063280706D584F8347026632046FA
:101F8000FFF734FEF8BD2806FCD515F0300F0CD055
:101F9000E16B11480865E06BFEF7B8FF0028F1D04F
:101FA000E06BBDE8F84001F09DBAA8070CD0216CA9
:101FB0000A480865206CFEF7A9FF0028E2D0206CD3
:101FC000BDE8F84001F06CBAA66384F8347026636B
:101FD0002046FFF77BFDF8BDE5340008A13400087A
:101FE00070B504000ED094F83400002518B9257798
:101FF000204600F04FF8032084F83400204600F01B
:102000000BF808B1012070BDA5632563012084F899
:102010003400002070BD0000FEB500250446762087
:102020000095CDE9015029460B460A46206800F08C
:10203000FDFE48BB154E46F8A05F206800F008FF83
:10204000012535600220FFF7E5F8204601F050FB3E
:1020500030B100BF84F83450A16B0143A16313E099
:10206000204601F0CEFA0028F4D14FF40071206828
:1020700000F03EFF002808D0226805499163A16B5B
:102080000143A16384F834500120FEBD0080254245
:10209000FF0540002DE9F04F87B005461421684642
:1020A000FEF7D8F84349286888427FD14248002487
:1020B0000068414940F400600860086800F400606E
:1020C00005903D481438016841F004010160016841
:1020D00001F004010591016841F008010160006808
:1020E0004FF0020800F0080005904FF4F850CDE9D9
:1020F000000802AA03274FF00C0982E89002694603
:102100002E48FFF799F802AA042682E89002CDE94A
:10211000006869462A48FFF78FF8DFF8AC80294944
:1021200040464FF0006902C04FF4806BE0E8029433
:102130008914E0E8024B4FF0200AA0E81204D0C056
:102140004F0204604046C8F83070FEF7C1FF08B186
:10215000FEF7D3FA1B481D4CC5F840804830C8F83C
:102160003850C4E900094020A0600020C4E9030BF6
:102170004FF48051C4F81CA0C4E90510C4E9080656
:1021800003212763C4E90A102046FEF7A1FF08B126
:10219000FEF7B3FAEC63002211463120A563FFF786
:1021A000C1F9312000E001E0FFF7AEF907B0BDE86A
:1021B000F08F0000002C014044380240000802402B
:1021C000000C024058640240C80100202802002090
:1021D0002DE9F04F87B09B4616460D460446FFF7A3
:1021E00031F900903DB194F83400012807D0A06B7C
:1021F00040F000500DE0A06B40F0006009E00020CE
:10220000A063E26D06EB0B01914204D9A06B40F094
:102210000070A06386E0032184F834102168C8624E
:10222000616C012900D076024FF0FF3101914FEA35
:102230004B2102914FF0010803AA90210227814609
:10224000CDF8188082E8820201A9206800F0CEFD56
:10225000BBF1010F05D927633146206800F0BAFEB3
:1022600005E0C4F830803146206800F0CCFEDFF88D
:1022700034A130B12268C2F838A0A16B0143A16338
:102280004CE0029E1EE0406B000413D596B100277F
:10229000206800F0E1FD05F8010B010A05F8011BBB
:1022A000010C05F8021B000E361F7F1C05F8010CFF
:1022B000082FEDD3FFF7C6F80099411A1098814214
:1022C0001DD2E0B12068426B40F22A310A42DAD0D6
:1022D000416BC90509D5BBF1010F06D9616C032912
:1022E00003D000F037FF0028C4D12068416B0907F4
:1022F0001AD5C0F838A0A06B40F0080050E0216863
:10230000C1F838A0A06B40F00040A06384F834808E
:10231000C4F83090032007B0BDE8F08F84F8348013
:10232000C4F830900120F6E7416B890705D5C0F865
:1023300038A0A06B40F0020032E0416B89061BD54B
:10234000C0F838A0A06B40F0200029E000F084FD28
:1023500005F8010B010A05F8011B010C05F8021B29
:10236000000E05F8010C361FFFF76CF80099411AB2
:10237000109881420ED268B12068416B890201D564
:10238000002EE3D1216840F23A50886384F834800B
:102390000020C0E72168C1F838A0A06B40F00040E1
:1023A000A063BBE7FF05400010B5FEF7FDF810BDC8
:1023B00010B5FEF70BF910BD2DE9F04F8DB09B461F
:1023C00016460D460446FFF73DF80A903DB194F8D5
:1023D0003400012807D0A06B40F000500DE0A06B46
:1023E00040F0006009E00020A063E26D06EB0B0105
:1023F000914204D9A06B40F00070A0637AE0032101
:1024000084F834102168C862616C012900D076021A
:102410004FF0FF3103914FEA4B2104919021CDE918
:1024200005104FF00109CDE90709824603A920688C
:1024300000F0DCFCBBF1010F06D9202020633146FF
:10244000206800F0A1FE05E01020206331462068DE
:1024500000F0B3FE5FEA000806D0216840488863B8
:10246000A06B40EA080071E0049E27E0406B400446
:102470001CD5DEB15FF0000715F8010B009015F8D0
:10248000011B361F40EA0120009015F8021B40EAAC
:102490000140009015F8011C40EA01600090694677
:1024A000206800F0ECFC7F1C082FE5D3FEF7CAFF84
:1024B0000A99411A1698814220D2F8B12068416BDE
:1024C00040F21A321142D1D0416BC90523D5BBF17C
:1024D000010F20D9616C03291DD000F03BFED0B163
:1024E00022681F499163A16B0143A16384F8349072
:1024F000C4F830A001200DB0BDE8F08F2168184865
:102500008863A06B40EA0800A06384F83490C4F8A4
:1025100030A00320EFE72068416B090705D510497B
:102520008163A06B40F0080010E0416B890705D57E
:102530000B498163A06B40F0020007E0416BC906C4
:1025400006D507498163A06B40F01000A063CDE77A
:1025500040F23A51816384F834900020CBE70000C8
:10256000FF05400010B5401EB0F1807F01D301206F
:1025700010BD4FF0E02460610F21601701F01EFCD8
:102580000020A06107202061002010BD7047704727
:10259000F8B5016804460868CA684B6910F00F0F67
:1025A0004FF000055AD003F0010602F4907737434C
:1025B00065D0C10705D0D10503D5216C41F00101DB
:1025C0002164410705D5D90703D0216C41F00201F0
:1025D0002164810705D5D90703D0216C41F004019E
:1025E0002164010707D502F02001314303D0216C9B
:1025F00041F008012164216C00293BD0800604D5FC
:10260000900602D5204601F029FA20684069216C25
:10261000C0F3801001F00801014320462BD001F0E7
:10262000E8F920684069400621D52068143050E858
:10263000001F21F0400140E80012002AF5D1A06BF4
:10264000A8B16C490165A06BFEF760FC002811D0B1
:10265000A06B016D01B0BDE8F040084783060ED5C0
:1026600093060CD52046BDE8F84001F0F7B92046A6
:10267000FFF78DFFF8BDFFF78AFF2564F8BD266BD5
:102680002023012E79D1C60677D5D60675D50868E0
:10269000486800904869400640D5A16B08684068CA
:1026A0000004000CEAD0A28D8242E7D9E085C86917
:1026B000B0F5807F2DD020680C3050E8001F21F449
:1026C000807140E80012002AF5D12068143050E8EB
:1026D000001F21F0010140E80012002AF5D1206816
:1026E000143050E8001F21F0400140E80012002A99
:1026F000F5D184F83E30256320680C3050E8001F87
:1027000021F0100140E80012002AF5D1A06BFEF77D
:10271000B4FBA08DE18D401A81B229E0A08DE18D3E
:10272000401A81B2E08D0028A8D00029A6D02068E8
:102730000C3050E8002F22F4907240E80026002E62
:10274000F5D12068143050E8002F22F0010240E853
:102750000026002EF5D184F83E30256320680C3029
:1027600050E8002F22F0100240E80023002BF5D1A2
:102770002046FFF70BFFF8BDFFE705062BD5150632
:1027800029D594F83D002128F5D1A068B0F5805FE7
:1027900001D12069B0B1206A411C21622168007812
:1027A0004860E08C401E0004000CE084E3D1206807
:1027B000C16821F08001C1602068C16841F040011A
:1027C000C160D8E7206A0088C0F308004860206A2A
:1027D000801C2062E5E74006CDD55006CBD5CA68FF
:1027E000204622F04002CA6084F83D3000F09AF999
:1027F000C1E700004D39000870B5040004D094F81A
:102800003D00002510B106E0012070BD84F83C5069
:10281000204600F023F8242084F83D002068C16899
:1028200021F40051C160204601F078F92068016967
:1028300021F4904101612068416921F02A01416140
:102840002068C16841F40051C1602564202084F8EB
:102850003D0084F83E00002070BD000070B586B0D9
:10286000064614216846FDF7F5FC24493068884285
:1028700041D123480025016841F010010160006842
:1028800000F0100005901E481438016841F0010165
:1028900001600068694600F0010005904FF4C060D7
:1028A00000900220CDE90105032003900720049049
:1028B0001448FEF7C1FC154C134820604FF000602F
:1028C00060604020C4E902050001C4E90405A56177
:1028D000E561256220466562FEF7FAFB08B1FDF767
:1028E0000CFF7463002211462520A663FEF71AFE32
:1028F0002520FEF709FE06B070BD00000010014063
:102900004438024000000240B864024088020020BF
:1029100090F83E30202B0ED159B152B190F83C3096
:10292000012B08D0012380F83C300023036301F021
:102930007BB90120704702207047000070B51A4C27
:102940002168814215D102224021184800F0EDF89B
:10295000174804F12205007802280BD094F82200D1
:1029600001F0D6F9012229462068FFF7D1FF00289F
:10297000F8D170BD0F4801220168491C01600E4961
:102980000020086029460D4800F000FA401CE9D1FB
:102990000A4802F099FF014609A001F0FFF90DA0D5
:1029A00001F0FCF9DEE70000000000200014024006
:1029B00070000020780000207C000020A000002093
:1029C000C4DCD0B4B5C4BFD5BCE4203A25640D0A3C
:1029D00000000000BBB7D0CEB6D3C1D0D2E7B3F66B
:1029E0000D0A00002DE9F843044690F83D001F460B
:1029F00016460D4620284CD1C5B1BEB194F83C0016
:102A0000012846D0012084F83C004FF00008C4F8AB
:102A10004080212084F83D00FEF714FDA684814605
:102A2000E684A068B0F5805F03D004E00120BDE833
:102A3000F883206928B12E465FF0000584F83C80B9
:102A40000EE00026FAE78021204601F00AF9A0B93D
:102A5000AEB116F8010B21684860E08C401EE0849E
:102A6000E08C4B464FF0000200970028EBD14FF06E
:102A70004001204601F0F5F830B10320D7E735F8E2
:102A8000020BC0F30800E6E7202084F83D00002098
:102A9000CDE70220CBE7000070B5044690F83D007A
:102AA000202836D191B38AB394F83C00012830D065
:102AB000012084F83C002162A284E2840025256480
:102AC000212084F83D00636B1348D863636B13487F
:102AD0001864636B1248D864606B134605652668FA
:102AE000606B321DFEF75EFB21686FF040000860EE
:102AF00084F83C502068143050E8001F41F08001F9
:102B000040E80012002AF5D1002070BDFFE7012047
:102B1000FBE70220F9E70000A7390008E9390008BF
:102B20005D39000870477047FEE72AB1012A05D0D9
:102B3000022A06D1FEF778BC012200E00022FEF74F
:102B40007BBC704730B520488BB01E49016008211E
:102B50000024C0E901144905C1604FF470210161EE
:102B60004FF4401141610476012545768576C4769F
:102B700004774477FDF7F3FF08B172B6FEE70394DC
:102B80000E200494CDE90850CDE906450594009443
:102B90000194029469460C48FDF7E8FD08B172B64D
:102BA000FEE70948FEF736F908B172B6FEE740F2D3
:102BB00003410548FDF7C8FD002801D072B6FEE7C5
:102BC0000BB030BD00640040B000002030B520489C
:102BD0008BB01E49016008210024C0E90114490599
:102BE000C1604FF4702101614FF4401141610476DE
:102BF000012545768576C47604774477FDF7AFFFE7
:102C000008B172B6FEE705A90E2081E831000394F1
:102C10000494CDE9085000940194029469460C484C
:102C2000FDF7A4FD08B172B6FEE70948FEF7F2F819
:102C300008B172B6FEE740F203410548FDF784FD96
:102C4000002801D072B6FEE70BB030BD006800402E
:102C5000D800002010B507490748FDF750FD054989
:102C60000122491E0870BDE81040491C034801F0CC
:102C70009BBE000062000020EC5C0008E80200201F
:102C80002DE9F04186B014216846FDF7E3FA2A48A1
:102C90000024016841F020010160016801F0200179
:102CA0000591016841F080010160016801F0800137
:102CB0000591016841F002010160016801F0020123
:102CC0000591016841F004010160016801F004010F
:102CD0000591016841F001010160016801F0010105
:102CE0000591016841F0080101600068134F00F090
:102CF00008000590002240213846FEF79DFBDFF8D2
:102D00004080002240214046FEF796FB40251126D8
:102D10000095CDE90164694638460394FEF78CFAC4
:102D20000095CDE90164694640460394FEF784FAB4
:102D300006B0BDE8F08100003038024000140240C7
:102D40000008024010B50E4C0C480C2120604FF4D6
:102D5000E13060600020A060E060C4E90401A0618F
:102D6000E0612046FFF748FD08B172B6FEE7206833
:102D7000C16841F02001C16010BD00000010014099
:102D800084010020FEE7FEE77047000070B514469E
:102D90004FF0FF3541B102F03DFEA04203D003A049
:102DA00000F0FCFF284670BD07A0F9E74552524FDE
:102DB000523A204661696C656420746F20726257D4
:102DC00072697465200A00004552524F523A2067DA
:102DD000697A507574446174612062756620697304
:102DE00020656D707479200A000000000A68426254
:102DF0004A688262D1E902231A43D1E904310B43C4
:102E0000C16A1A4321F0F7011143C16200207047E3
:102E1000006800F0030070470844406970470000F4
:102E20000148FEF7D9BF00000001002070B50DF188
:102E3000100C11439CE87000234319432943426856
:102E4000314347F6FF639A430A434260002070BD56
:102E50000321016000207047D0F8800070470A68A5
:102E60008260D1E901231A43D1E903310B43C168E0
:102E70001A436FF30B011143C160002070470968CA
:102E8000C0F880100020704710B585B00446372088
:102E9000CDE9001040200290002003904FF48060A4
:102EA000049069462046FFF7DAFF41F28832372165
:102EB000204600F09BF905B010BD000010B5044697
:102EC0000A4885B001432920CDE900104020029036
:102ED000002003904FF48060049069462046FFF77D
:102EE000BEFF204600F03AFA05B010BD0000108089
:102EF00010B585B004461020CDE9001040200290A6
:102F0000002003904FF48060049069462046FFF74C
:102F1000A6FF41F288321021204600F067F905B083
:102F200010BD10B585B004460620CDE90010402044
:102F30000290002003904FF4806004906946204680
:102F4000FFF78DFF41F288320621204600F04EF94E
:102F500005B010BD30B585B000240546009401943D
:102F60004FF480600294CDE9034069462846FFF79C
:102F700076FF0B484FF4FA510068B0FBF1F041F2D4
:102F800088314843401E03D24FF0004005B030BDA9
:102F9000696B0906F6D5C520A8632046F6E7000050
:102FA0009000002010B585B004464FF4D570009015
:102FB0000820019040200290002003904FF4806090
:102FC000049069462046FFF74AFF204600F02CFA9D
:102FD00005B010BD10B585B004461220CDE9001033
:102FE00040200290002003904FF4806004906946D6
:102FF0002046FFF734FF41F288321221204600F0CC
:10300000F5F805B010BD10B585B004461120CDE926
:10301000001040200290002003904FF48060049044
:1030200069462046FFF71BFF41F2883211212046F6
:1030300000F0DCF805B010BD10B585B004460720DF
:10304000CDE9002040200290002003904FF48060E2
:10305000049069462046FFF702FF41F288320721BB
:10306000204600F0C3F805B010BD10B585B0044689
:1030700000210220CDE90010C020CDE902014FF46B
:103080008060049069462046FFF7E9FE204600F084
:103090003DF905B010BD10B585B004460920CDE955
:1030A0000010C0200290002003904FF48060049034
:1030B00069462046FFF7D3FE204600F027F905B009
:1030C00010BD10B585B0044600213320CDE90010B5
:1030D0004020CDE902010001049069462046FFF737
:1030E000BEFE41F288323321204600F07FF805B061
:1030F00010BD10B585B004460D20CDE9001040206C
:103100000290002003904FF48060049069462046AE
:10311000FFF7A5FE41F288320D21204600F066F847
:1031200005B010BD30B585B00C4605460021032022
:10313000CDE900104020CDE902010001049069466C
:103140002846FFF78CFE22460321284600F028F986
:1031500005B030BD10B585B0044600210C20CDE986
:1031600000104020CDE9020100010490694620468C
:10317000FFF775FE034A0C21204600F037F805B032
:1031800010BD000000E1F50510B585B0044619201A
:10319000CDE9001040200290002003904FF48060A1
:1031A000049069462046FFF75AFE41F28832192101
:1031B000204600F01BF805B010BD10B585B00446E0
:1031C0001820CDE9001040200290002003904FF419
:1031D0008060049069462046FFF741FE41F2883244
:1031E0001821204600F002F805B010BD454B10B57F
:1031F0001B684FF4FA54B3FBF4F353435B1E02D243
:103200004FF0004010BD426B12F0450FF6D0120592
:10321000F4D4426B520703D504218163084610BDE4
:10322000426BD20702D00121816305E0C52282638F
:103230000269D2B28A4201D0012010BD0021FFF7FD
:10324000EBFD3149084201D1002010BD002802DA0F
:103250004FF0007010BD410001D5402010BD81002D
:1032600001D5802010BDC10002D54FF4807010BD83
:10327000010102D54FF4007010BD410102D54FF499
:10328000806010BDC10102D54FF4006010BD010285
:1032900002D54FF4805010BD410202D54FF40050CA
:1032A00010BD810202D54FF4804010BDC10202D58D
:1032B0004FF4004010BD410302D54FF4003010BD63
:1032C000810302D54FF4802010BDC10302D54FF415
:1032D000002010BD010402D54FF4801010BD410440
:1032E00002D54FF4001010BD810402D54FF48000C8
:1032F00010BD000702D54FF4000010BD4FF4803020
:1033000010BD00009000002008E0FFFD12494FF4BE
:10331000FA520968B1FBF2F141F288325143491E79
:1033200002D24FF000407047426B12F0450FF6D0CA
:103330001205F4D4416B490703D504218163084683
:103340007047416BC90703D001218163084670476C
:10335000C521816300207047900000200F494FF481
:10336000FA520968B1FBF2F141F288325143491E29
:1033700002D24FF000407047426B12F0450FF6D07A
:103380001205F4D4416B490703D504218163084633
:103390007047C52181630020704700009000002025
:1033A00030B5204B4FF4FA541B68B3FBF4F341F2F1
:1033B000883463435B1E02D24FF0004030BD446B43
:1033C00014F0450FF6D02405F4D4436B5B0703D506
:1033D00004218163084630BD436BDB0702D0012125
:1033E000816303E00369DBB28B4201D0012030BD71
:1033F000C52181630021FFF70FFD10F4604F04D059
:10340000410406D54FF4005030BD000C1080002060
:1034100030BD000402D54FF4805030BD4FF48030F1
:1034200030BD00009000002014494FF4FA520968A2
:10343000B1FBF2F141F288325143491E02D24FF002
:1034400000407047426B12F0450FF6D01205F4D4DD
:10345000416B490703D50421816308467047416BDE
:10346000C90703D00121816308467047416B4906B3
:1034700001D54021816300207047000090000020AA
:1034800010B5064C01202070FDF752F818B92078CD
:1034900020F001002070207810BD000060000020A6
:1034A00010B5846B40F23A50216888632046FEF7DD
:1034B0007DFC012184F8341000212163062801D00D
:1034C000052805D12068FFF745FEA16B0843A063DE
:1034D000A06B0028204602D0FEF788FB10BDFEF747
:1034E000F5FA10BD10B5846B40F23A50216888633C
:1034F0002046FEF75BFC012184F834100021216393
:10350000062801D0052805D12068FFF723FEA16B0E
:103510000843A063A06B0028204602D0FEF766FB9C
:1035200010BDFEF7D3FA10BD2DE9F04788B00D4667
:103530000446FDF787FF002682460096019637462F
:1035400008212068FFF7D4FC002829D1B4F85000E6
:1035500001042068FFF798FC002821D1401E4FF09D
:103560000808CDE9020830204FF00209CDE904092E
:103570000120CDE9067002A92068FFF737FC20681A
:10358000FFF79FFD00280BD16F462068416B11F0BB
:103590002A0F08D0416B09071AD5C0F838800820D7
:1035A00008B0BDE8F087416B890205D5FFF754FCF0
:1035B00047F82600761C02E0416B8904EAD5FDF746
:1035C00041FFA0EB0A00401CDFD14FF00040E7E7CD
:1035D000416B890703D5C0F838900220E0E7416BC2
:1035E000890603D5202181630846D9E740F23A5184
:1035F0008163019800BA2860009800BA68600020D2
:10360000CEE710B590B004460120ADF83800206830
:10361000FFF7FEFB002854D0606C032842D02068DE
:10362000FFF723FD00284AD100212068FFF7F4FBB3
:10363000606704212068FFF7EFFBA067082120687E
:10364000FFF7EAFBE0670C212068FFF7E5FBC4F811
:103650008000606C032825D00EA92068FFF762FD6A
:1036600000282CD1606C03281CD0BDF838002065E0
:1036700001042068FFF70FFD002820D100212068F9
:10368000FFF7CAFB606604212068FFF7C5FBA06650
:1036900008212068FFF7C0FBE0660C212068FFF7D7
:1036A000BBFB206704212068FFF7B6FB000DE06438
:1036B00003A92046FEF79CFA30B14FF0805010B0BD
:1036C00010BD4FF08060FAE7B4F850000023020408
:1036D0002068FFF7B1FC0028F1D104F1100007C801
:1036E0008DE8070094E80F00FFF7A0FB0020E6E755
:1036F0002DE9F84F0026044600963546B04600688E
:10370000FFF728FC002827D12068FFF74BFC4FF07B
:10371000805B4FF001094FF6FF7748B1A66420683F
:10372000FFF718FC002817D1A06C012802D020E078
:10373000C4F8489000212068FFF7A6FB58B918E0AC
:1037400000212068FFF7A0FB002805D15146206822
:10375000FFF7B4FB10B15846BDE8F88F0021206890
:10376000FFF75AFB05464FEAD0780098401C0090BE
:1037700002E0DFF82CA00098B84202D2B8F1000FA6
:10378000DED00098B84202D34FF08070E4E76800C2
:1037900002D5C4F8449000E066640020DCE7000035
:1037A000000010C170B5064C054601202070FCF7E2
:1037B000CBFE18B92846FFF763FE2070207870BD55
:1037C0006000002010B5124888B014460078C00789
:1037D00002D0032008B010BDC1B1012905D00229D3
:1037E00008D003290CD00420F4E76846FCF79AFEC1
:1037F00006980AE06846FCF795FE0798208005E0E9
:103800006846FCF78FFE0798400A20600020E1E739
:103810006000002070B51D46164608460124A31E10
:103820002A463146FCF7B0FE28B900BFFCF780FEFF
:103830000028FBD10024204670BDFFF721BE000008
:1038400070B51D46164608460124A31E2A46314679
:10385000FCF7ACFE28B900BFFCF76AFE0028FBD1DC
:103860000024204670BD704710B5FDF7F1FD094AF0
:10387000106800280DD00848084B0168491C0160F9
:103880001B68994205D3002101601160044903209F
:10389000087010BD780000207C0000206800002027
:1038A0007000002030B593B030216846FCF7D2FCA0
:1038B00014210CA8FCF7CEFC1E480025016841F03D
:1038C00080510160006800F0805011901A48016832
:1038D00041F4804101600068022400F480401190AE
:1038E00001200090000401908001CDE906401920DC
:1038F00008904FF4A870CDE9090407200B906846A2
:10390000FDF72EFF08B172B6FEE70CA90F2081E883
:1039100031004FF4A0500F904FF4805010900521CB
:103920000CA8FDF731FE002801D072B6FEE713B0F7
:1039300030BD00004038024000700040024801687D
:1039400041F470010160704788ED00E010B5806BB4
:103950000021C185C184FEF71AFE10BD70B5846BCD
:103960002068406994F83D10C0F3C010002521295B
:1039700004D118B1E584204600F062F8206840695F
:1039800094F83E10C0F38010222904D118B1E585C7
:10399000204600F02EF8206C40F0100020642046F5
:1039A000FEF7F5FD70BD10B50146806B096809682A
:1039B000C90516D40021C1840168143151E8002FD3
:1039C00022F0800241E80023002BF5D101680C3180
:1039D00051E8002F42F0400241E80023002BF5D1CE
:1039E00010BDFFF79FF810BD10B5806BFFF79BF877
:1039F00010BD01680C3151E8002F22F4907241E8AB
:103A00000023002BF5D10168143151E8002F22F07A
:103A1000010241E80023002BF5D1016B012909D1F6
:103A200001680C3151E8002F22F0100241E8002318
:103A3000002BF5D1202180F83E1000210163704752
:103A400001680C3151E8002F22F0C00241E8002348
:103A5000002BF5D1202180F83D10704708B590F873
:103A60003E10222901D0022008BD82684FF4805305
:103A70009A4201D1016921B1816A9A421BD04AB1AF
:103A80000AE00268816A5268C2F308020A80816A09
:103A9000891C08E0026972B10268526802F07F0274
:103AA0000A70816A491C8162C18D491E0904090C92
:103AB000C18503D019E002685268F1E70168CA685D
:103AC00022F02002CA600168CA6822F48072CA60CB
:103AD00001684A6922F001024A61202180F83E1003
:103AE000016B012903D0FEF729FF002008BD00214A
:103AF000016301680C3151E8002F22F0100241E807
:103B00000023002BF5D101680A68D20602D50A68A5
:103B100049680091818DFEF739FDE6E770B50446EE
:103B200000680169E26821F4405111430161216993
:103B3000A068E26908436169114308432168CA68C3
:103B400049F20C639A430243CA6020684169A26942
:103B500021F440711143416131492068884202D00B
:103B60003049884202D1FDF7B9FD01E0FDF7A6FD1D
:103B7000E2690023192164253226B2F5004F6268FC
:103B800028D0A0FB0101930F9200FCF719FB01461E
:103B9000B0FBF5F06FF01802504301EB800006EB2C
:103BA0000010B0FBF5F000F0F002B1FBF5F002EB15
:103BB0000012B1FBF5F06FF01803584301EB8000E1
:103BC00006EB0010B0FBF5F000F00F002168104488
:103BD000886070BDA0FB010192185B41FCF7F0FA10
:103BE0000146B0FBF5F00201B1FBF5F06FF01803F0
:103BF000584301EB800006EBC000B0FBF5F000F08D
:103C0000F80002EB4002B1FBF5F0584301EB8000F5
:103C100006EBC000B0FBF5F000F00700D6E70000AF
:103C2000001001400014014081628285C28500219C
:103C30000164222280F83E2080F83C10016921B105
:103C40000168CA6842F48072CA6001684A6942F039
:103C500001024A610068C16841F02001C160002092
:103C600070472DE9F041984617460E460446069DDA
:103C700027E0681C25D02DB1FDF7E4FBA0EB080080
:103C8000A8421ED920680C3050E8001F21F4D071E2
:103C900040E80012002AF5D12068143050E8001FD7
:103CA00021F0010140E80012002AF5D1202084F81B
:103CB0003D0084F83E00002084F83C000320BDE86D
:103CC000F0812068006836EA000004D00020B84285
:103CD000CFD00020F3E70120F9E700000148FEF70C
:103CE00057BC000084010020FEE7000070B50546C7
:103CF0000C460846FCF7B9FA044982B2086021462E
:103D00002846BDE87040FEF7C7BE00002C0000202A
:103D100070B51F4A111D536A5854536A1D485B1CE5
:103D20005362916A012411B101290FD027E015795E
:103D30000021222D02D05162418070BD052B0CD094
:103D40004588AB4213D195B1C2E90914117A0170CB
:103D5000537A437001290ED011E0D379947903EBA3
:103D600004239BB243801E2BE7D3418001E01E2B2E
:103D700005D3516270BD012B01D107480470506A10
:103D80001D28F7D31E21101DFCF764FA70BD00003A
:103D90000000002080000020700000200FB4054BC0
:103DA00010B503A9044A029800F028F810BC5DF889
:103DB00014FB0000F15200089C0000200907090EC6
:103DC000002804DB00F1E02080F80014704700F0C8
:103DD0000F0000F1E02080F8141D704702E008C8D1
:103DE000121F08C1002AFAD170477047002001E075
:103DF00001C1121F002AFBD1704700002DE9FF4FBF
:103E000089B09B460446002506E025280BD05A467B
:103E10000B999047641C6D1C20780028F5D10DB0DB
:103E20002846BDE8F08F0027B8460122474900E048
:103E3000074314F8013F203B02FA03F00842F7D190
:103E400020782E2819D114F8010F47F004072A28EA
:103E50000ED06FF02F022078A0F1300109290CD884
:103E600008EB880102EB410100EB0108641CF2E75A
:103E70000A98641C50F8048B0A9020780028CED051
:103E8000642808D0692806D075281ED05A460B9998
:103E900090476D1C58E00A994FF00A0901C90A9130
:103EA000002802DA40422D2102E0390504D52B21F9
:103EB0008DF82010012103E0F90704D02021F7E755
:103EC0008A4608AE0DE00021FAE70A994FF00A0988
:103ED00001C90A91F7E74946FCF7CEF9303106F8F7
:103EE000011D0028F7D1ADEB060000F1200978078D
:103EF00001D44FF00108C84502DDA8EB090000E03D
:103F000000208046002706E008A85A46C05D0B99AD
:103F100090476D1C7F1C5745F6DB04E030205A4665
:103F20000B9990476D1CB8F10001A8F10108F5DC70
:103F300005E016F8010B5A460B9990476D1CB9F134
:103F40000001A9F10109F4DC641C65E709280100FE
:103F500010B504460020E070401E2063204601F0AA
:103F6000B6FB08B1042010BD04F2322001F012FBB0
:103F7000A0F52A41553901D0032010BD94F8340032
:103F8000E92805D0EB2817D194F83600902813D1F2
:103F900004F16A0001F0F3FA084920F07F408842FA
:103FA00001D1002010BD04F1860001F0E8FA0449B7
:103FB000884201D1002010BD022010BD46415400AE
:103FC0004641543300E0401C02780AB18A42FAD1DB
:103FD0000078704770B400221446194D05EB0213A7
:103FE000D3F800C0BCF1000F0DD00668B4450BD16A
:103FF000D3F804C08668B44506D19B68D0F814C0D5
:10400000634504D000E00124521C022AE6D3022AB0
:1040100001D091B908E024B9022902D070BC122065
:10402000704770BC0020704705EB02108089B0F526
:10403000807F02D070BC0020704770BC1020704799
:104040009C0D002010B40021064B8C4603EB01129E
:104050001468844201D1C2F800C0491C0229F5D37A
:1040600010BC70479C0D00200368C06A021D480AFE
:104070005989B0FBF1F052F8041B21B1884204D2F7
:1040800011680844704700207047401A121DF2E77B
:10409000891E8269921E8A4201D800207047C26A36
:1040A000408901FB002070472DE9F05F81460F46F3
:1040B00007F11A0001F06EFA10B10020BDE8F09F80
:1040C000387800F03F00401E00EB800101EBC00497
:1040D00001260025DFF864A04FF6FF7B1AF80500E3
:1040E000384401F057FA804696B1FF2C0BD2404677
:1040F00000F0FAFE06462046641C39F8100000F075
:10410000F3FE864202D00020BDE8F09F464604E060
:10411000D84502D00020BDE8F09F6D1C0D2DDDD3E9
:10412000387810F0400F06D02EB139F8140010B1D5
:104130000020BDE8F09F0120BDE8F09F205D000851
:104140002DE9F04180460F46D8F80050002F08D0E6
:104150003946404601F02BF9022809D20120BDE87A
:10416000F0812E6916B1A869B04208D8012606E090
:10417000B0F1FF3FF3D0A9698142F0D83E46344602
:10418000641CA869A04205D80224022E02D2002095
:10419000BDE8F0812146404601F009F948B1012807
:1041A000F6D0B0F1FF3FF3D0B442E9D10020BDE832
:1041B000F0814FF0FF322146284601F0A2FA28B9DB
:1041C00027B122463946284601F09BFA28B101283A
:1041D00010D001242046BDE8F0812C61A9696869EE
:1041E000891E884201D8401E6861287940F001008C
:1041F0002871EFE74FF0FF34ECE700002DE9F35FA3
:104200000F463E6800980068D0F80CA000242546B0
:1042100028466D1C305C20280FD32F2808D05C283E
:1042200006D0FF2C0FD302B00620BDE8F09F6D1C16
:10423000715D2F29FBD05C29F9D0711939602028D4
:1042400033D2042532E0C0B2A0F181017D2910D81B
:1042500029466D1C715C01EB002080B2A1F1400287
:104260003F2A06D380397F2903D302B00620BDE858
:10427000F09F012100F008FE8046B8F1000F0BD03E
:10428000B8F1800F0CD241466DA0FFF79BFE38B10C
:1042900002B00620BDE8F09F02B00620BDE8F09F06
:1042A0002046641C2AF81080B2E700254CB1601E3D
:1042B0003AF81000202801D02E2802D1641E002CCC
:1042C000F5D100202AF814003CB100980B222021DF
:1042D000243001F0F6F9002704E002B00620BDE822
:1042E000F09F7F1C3AF817002028FAD02E28F8D02B
:1042F0001FB145F0030500E0641E24B1601E3AF8CA
:1043000010002E28F8D14FF00008C1464FF0080BDE
:1043100038467F1C3AF8106006B3202E03D02E2EAC
:1043200004D1A74202D045F00305F1E7D84501D2F8
:10433000A74219D1BBF10B0F0ED0A74201D045F017
:1043400003050BD827464FF008084FF00B0B4FEA38
:1043500089604FEA1069DBE745F00305009890F8A3
:104360002400E52840D043E0802E08D3304600F0FA
:10437000BBFD002100F088FD064645F00205B6F5BC
:10438000807F10D3ABF10100804503D345F00305D6
:10439000D846BDE7009940460844320A08F10108B2
:1043A00080F8242018E026B1314628A0FFF70AFE45
:1043B00018B15F2645F003050EE0A6F1410019286B
:1043C00002D849F0020907E0A6F16100192803D8D4
:1043D00049F00109413086B200994046084408F18D
:1043E000010880F8246093E70098052180F82410E4
:1043F000BBF1080F03D14FEA89604FEA10690C2026
:1044000030EA090003D0032030EA090001D145F069
:10441000020515F0020F0BD109F00300012801D1AC
:1044200045F0100509F00C00042801D145F00805FD
:10443000009880F82F5002B00020BDE8F09F0000E7
:10444000222A3A3C3E3F7C7F000000002B2C3B3D63
:104450005B5D0000401E022810D2094901EB0011EB
:104460008889B0F5807F00D1002008B1401E80B25D
:10447000888108B90020086000207047022070473A
:104480009C0D00202DE9F04105460E462F680021C5
:10449000284600F0BDF988B900243846E96901F0E2
:1044A00016F958B9296A0A78E52A0CD05AB10024BD
:1044B0000121284600F07AF80028EED0042800D127
:1044C0000720BDE8F081641CB442F7D0F0E72DE985
:1044D000F0470446D4F800900021204600F098F9F7
:1044E000002861D1FF2637464FF0FF3AC4F830A0CC
:1044F0004846E16901F0EBF880465FEA080052D1D6
:10450000206A057875B1C17A01F03F01A171E52DEE
:1045100004D011F0080F08D00F2906D0FF26C4F8E8
:1045200030A038E04FF004083DE00F2901D0FEB183
:1045300022E094F82F1011F0400F2CD115F0400F0D
:1045400005D0477B05F0BF052E4661692163B54262
:104550000BD1417BB94208D1D9F80C200146104655
:10456000FFF7A2FD08B1701E00E0FF20C6B212E006
:1045700001F020FBB84216D094F82F0010F0010F84
:1045800006D10B2204F12401206A01F085F850B114
:10459000FF26C4F830A00021204600F007F880462E
:1045A0005FEA0800A4D04046BDE8F0872DE9F04757
:1045B00005460E462C68686900F12008E869002865
:1045C00002D0B8F5001F02D30420BDE8F087C8F37D
:1045D0000801002973D1401CE861A9694FF0000966
:1045E00029B16089401E10EA582F09D067E0208960
:1045F000B0EB581F63D8C5F81C900420BDE8F087C5
:10460000284600F0D4FE0746012F02D80220BDE85C
:10461000F087B7F1FF3F16D0A069B84249D8AEB1D4
:104620002846A969FFF78CFD0746380013D0012FF3
:1046300014D0B7F1FF3F14D0204601F00FFB98B122
:104640000120BDE8F0870120BDE8F087C5F81C9087
:104650000420BDE8F0870720BDE8F0870220BDE810
:10466000F0870120BDE8F0874FF40072002104F1CB
:10467000340001F026F8002639462046FFF708FDF1
:1046800020636089002811D94FF0010984F8039054
:10469000204601F0E3FA10B10120BDE8F087761C56
:1046A000206B401C20636089B042EFD8206B801BD8
:1046B0002063AF6139462046FFF7EAFCE861C5F8A0
:1046C0001480C8F308002044343028620020BDE87C
:1046D000F08700002DE9F04383B00446256894F884
:1046E0002F0010F0A00F03D0062003B0BDE8F08328
:1046F0000027E86800E07F1C30F817100029FAD185
:104700000C2204F12401684600F0D2FF9DF80B0052
:1047100010F0010F19D0402084F82F0001263346F5
:10472000694604F12400EA6800F0EEFD2046FFF738
:10473000CEFE10B9761C642EF1D3642E12D004285C
:10474000D3D19DF80B0084F82F009DF80B0010F0DA
:10475000020F0BD02D4907F10C00A1FB00108008BF
:10476000471C04E003B00720BDE8F0830127394669
:104770002046FFF787FE06464FF0010836BB7F1E36
:1047800024D06069794200EB4111204600F040F8E6
:10479000064630001AD104F1240001F00BFA8146DC
:1047A0002846E16900F093FF06467EB9FAB2216A15
:1047B0004B46E86801F026F885F803800021204682
:1047C000FFF7F4FE06460EB97F1EE9D1CEB92846A2
:1047D000E16900F07CFF0646300012D12022002162
:1047E000206A00F06EFF0B2204F12401206A00F021
:1047F0005FFF94F82F00216A00F01800087385F815
:10480000038003B03046BDE8F08300004FECC44E97
:104810002DE9F04106460C463768B4F5001F02D278
:1048200014F01F0F02D00220BDE8F0817461B5685A
:104830001DB93878032800D3BD6AA5B178894FEA3D
:104840004028444520D32946304600F0B0FD0546B7
:10485000B5F1FF3F11D0022D02D3B869A8420FD89D
:104860000220BDE8F0813889B0EB541F02D8022045
:10487000BDE8F081B86AF0610BE00120BDE8F0818D
:10488000A4EB08044445DED229463846FFF700FC75
:10489000F061B561F06950B100EB5420F061C4F3F0
:1048A00008003844343030620020BDE8F081022036
:1048B000BDE8F08110B5002208490B5C002B0AD13D
:1048C00001220A540A1801EB8000127A406801683C
:1048D000104688470246104610BD0000BC0D00205F
:1048E000054B03EB000C03EB80009CF808C040680C
:1048F0000369604618470000BC0D002030B4DFF8A3
:1049000018C00CEB00040CEB8000247A4068D0F84F
:1049100008C0204630BC6047BC0D002004490A187E
:1049200001EB8000127A4068416810460847000099
:10493000BC0D002030B4DFF818C00CEB00040CEB09
:104940008000247A4068D0F80CC0204630BC604714
:10495000BC0D00200020084900E0401C022804D2C1
:1049600001EB00121268002AF7D1022801D00120C1
:1049700070470020704700009C0D002038B50446A9
:10498000204600F052F900280CD16946204601F07B
:1049900090F9002806D12069FFF75CFD002801D1BD
:1049A0000021216038BD00002DE9F74181B0164695
:1049B00002980090684600F05EFD0446002C03DA81
:1049C00004B00B20BDE8F081104F57F824504FF091
:1049D000000825B12846FFF735FB85F800800198CF
:1049E000002801D080F8008047F8240001D0012E73
:1049F00003D004B00020BDE8F081002201A902A884
:104A000000F0C4FA04B0BDE8F08100009800002076
:104A10002DE9F743ADF50E7D0546002D0CD002F0D3
:104A20003F06324680A98FA800F0B0FA04464FF046
:104A3000000834B100F0EFB80DF5117D0920BDE894
:104A4000F08380988190C0F80CD081A88F9900F0F5
:104A50000BFC0446200010D19DF8330210F0800FAB
:104A600001D0062409E036F0010001D0012100E068
:104A7000002181A8FFF7AEFA044616F01C0F54D0AF
:104A80006CB1042C08D1FFF765FF20B181A8FFF7B6
:104A900021FE044600E0122446F008060AE09DF8D4
:104AA0000A0210F0110F01D0072403E016F0040FE2
:104AB00000D00824002C47D116F0080F44D000F095
:104AC000D8FC0746899839460E3001F064F8899879
:104AD0003946163001F05FF889992020C87289990B
:104AE000809800F039FD074600228999809801F0EE
:104AF0003EF8899800211C3001F04DF88098012182
:104B0000C1700FB3D0F830900022394681A800F070
:104B1000EFFF0446200017D14946809800F0D7FDEA
:104B200004468099781E08610EE06CB99DF80A026F
:104B300010F0100F01D0042406E016F0020F03D08D
:104B400010F0010F00D00724ACB916F0080F01D007
:104B500046F040068098006B68628998A86236F03B
:104B6000010001D0012100E0002181A800F0AAFC91
:104B7000286100B90224ECBB8999809800F0ECFC14
:104B8000A86089981C3000F0FAFCE860C5F82C8019
:104B900080982860C088A8802E7585F81580C5F893
:104BA0002080C5F818804FF40072002105F1300014
:104BB00000F087FD16F0200F2DD0EE68D6B1AE6163
:104BC000809840894702A9680BE0284600F0EFFB77
:104BD0000146012900D80224B1F1FF3F00D1012490
:104BE000F61B0CB9BE42F0D8E9611CB9F005C00D46
:104BF00011D000E00FE08098FFF74AFA98B100EB7F
:104C000056222A628098012305F130014078FFF78F
:104C100075FE00B101240CB1C5F800800DF5117DC1
:104C20002046BDE8F0830224F5E7F8B5044669465E
:104C3000204601F03EF80146002941D1207D10F0C8
:104C4000400F3DD010F0800F0ED00098226A012353
:104C5000407804F13001FFF76DFE08B10120F8BD86
:104C6000207D00F07F00207500F003FC0646616A9D
:104C7000009800F02CFD014611BBA56AE87A40F0CF
:104C80002000E8722946A268206800F070FF05F154
:104C90001C00E16800F07FFF314605F1160000F0CE
:104CA0007AFF002105F1120000F07FFF009801213A
:104CB000C17000F08DFF0146207D00F0BF0020751F
:104CC0000846F8BD2DE9F84F04460F4616469846AB
:104CD0000020C8F800006946204600F0EAFF0028DE
:104CE00014D1607D002811D1207D10F0020F0CD06E
:104CF000A069811900D3C643002E6FD04FF001097F
:104D0000A169C805C00D03D093E00720BDE8F88F66
:104D100000984089401E00EA512ABAF1000F26D1BE
:104D200029B1E06A50B12046FFF79EF90AE0A06879
:104D300040B900212046FFF703FA03E02046E1696D
:104D4000FFF7FEF9002849D0012806D0B0F1FF3F57
:104D500007D0E061A16849B109E002206075BDE8B3
:104D6000F88F84F815900120BDE8F88FA060207DB1
:104D700010F0800F11D00098226A0123407804F1CE
:104D80003001FFF7D7FD20B184F815900120BDE870
:104D9000F88F207D00F07F002075E1690098FFF713
:104DA00077F9B8B100EB0A0B750A5DB300980AEB0E
:104DB000050241898A4201D9A1EB0A0540782B46B8
:104DC0005A463946FFF7B6FD48B184F815900120E0
:104DD000BDE8F88F02206075BDE8F88F4DE0206ACD
:104DE000A0EB0B00A8420BD207EB40214FF400725E
:104DF00004F1300000F05CFC207D00F07F002075A5
:104E00006D0228E0206A584511D0E168A069884207
:104E10000DD2009801235A46407804F13001FFF783
:104E20006DFD20B184F815900120BDE8F88FC4F81D
:104E300020B0208BC0F30800C0F50075B54200D942
:104E40003546204430302A46394600F031FC207D7A
:104E500040F0800020752F44A0692844A061E168DB
:104E6000884200D80846E060D8F800002844C8F816
:104E70000000761B002E7FF443AF207D40F0400001
:104E800020750020BDE8F88F30B4802822D319B1F6
:104E9000134C45F2205C02E0124C45F2205C0023EA
:104EA0001022ACEB030101EBD17103EB610134F88B
:104EB0002150854207D001D20B4600E08C46A2F17A
:104EC0000102002AEDD13AB14FF0010000EB4100A0
:104ED00034F8100030BC704730BC4FF00000704711
:104EE000CEB101084A5D000810B4B0F5805F01D270
:104EF000244900E0244931F8022B002A16D09042C0
:104F000014D331F8023B4FEA132CDBB2D41884429D
:104F100032D9BCF1090F09D2DFE80CF0050A1115EE
:104F2000191D21252900801A31F8100010BC704786
:104F3000811A01F00101401A80B210BC704710388C
:104F400080B210BC7047203880B210BC7047303837
:104F500080B210BC70471A3880B210BC704708305D
:104F600080B210BC7047503880B210BC7047A0F5BA
:104F7000E35080B210BC7047BCF1000FBBD101EB15
:104F80004301B8E752060308440803082DE9F0413D
:104F900084B00E4690460027376000F06CFA054654
:104FA000002D03DA04B00B20BDE8F081AA4850F8C8
:104FB0002540B4B1346008F0FE06207828B160784E
:104FC000FFF7ACFC10F0010F0FD02770E8B2607053
:104FD000FFF770FC10F0010F13D004B00320BDE800
:104FE000F08104B00C20BDE8F08136B110F0040F60
:104FF00003D004B00A20BDE8F08104B00020BDE871
:10500000F08136B110F0040F03D004B00A20BDE8DF
:10501000F081002529462046FEF79AFF02281FD17D
:10502000E84604EB051000F5F970017919B1083074
:1050300000F0A5FA00E0002048F825006D1C042DC2
:10504000EFD3002658F8265025B129462046FEF712
:105050007FFF00E00320022802D3761C042EF1D348
:10506000042805D0022807D304B00D20BDE8F08144
:1050700004B00120BDE8F08104F13F0000F08AFA9D
:10508000B0F5007F03D004B00D20BDE8F08104F13D
:105090004A0000F07FFA014621B904F1580000F0FF
:1050A0006EFA0146E16194F84400A070012805D031
:1050B000022803D004B00D20BDE8F08100FB01F808
:1050C00094F84100608110B1411E084203D004B041
:1050D0000D20BDE8F08104F1450000F05BFA20816D
:1050E00010F00F0F03D004B00D20BDE8F08104F1E3
:1050F000470000F04FFA0646300004D104F1540096
:1051000000F03DFA064604F1420000F043FA024680
:1051100052B1238902EB080000EB13118E4207D233
:1051200004B00D20BDE8F08104B00D20BDE8F08191
:10513000B4F80AC0701AB0FBFCF048B303264FF66F
:10514000F57C604500D8022640F6F57C604500D825
:105150000126801CA06125622A4462622944E16222
:10516000032E19D07BB302EB0801A162022E2FD0CF
:1051700000F0010100EB400001EB5000E16900F29A
:10518000FF10B1EB502F25D204B00D20BDE8F08107
:1051900004B00D20BDE8F08104F15E0000F0FAF9E2
:1051A00018B104B00D20BDE8F081208918B104B019
:1051B0000D20BDE8F08104F1600000F0E0F9A0628C
:1051C000A0698000DAE7FFE704B00D20BDE8F081B8
:1051D0004000D3E74FF0FF306061206180202071F4
:1051E000032E2BD104F1640000F0D4F9012825D15D
:1051F000691C204600F06BFA00BB277104F23220D4
:1052000000F0C8F9A0F52A41553917D104F134004E
:1052100000F0B5F91149884210D104F5067000F08C
:10522000AEF90F49884209D104F5077000F0A7F9DB
:10523000606104F5087000F0A2F920612670094948
:105240000888401C0880E0802046FEF7FBFE04B082
:105250000020BDE8F081000098000020525261411A
:10526000727241619400002073B50446256801E024
:10527000401C0190019801782F29F9D05C29F7D0C2
:105280000021A16001980078202807D2802084F8AE
:105290002F002046FFF7BCFA02B070BD01A92046DE
:1052A000FEF7ACFF0028F7D12046FFF710F994F87D
:1052B0002F1038B10428EFD111F0040FECD10520E4
:1052C00002B070BD11F0040FFAD1A07910F0100FE8
:1052D0000AD0A08AC0F30800284400F1340128460F
:1052E00000F03AF9A060D9E7052002B070BD0000D7
:1052F00013B54FF47A73012269460248FDF772FB39
:1053000000981CBD8401002070B582B00546164689
:105310001C460B22284600F0CBF9052C16D9308804
:10532000A0B136F8021B002320460C4660F35F0450
:10533000490814F4803F03D084F0210484F48834B5
:105340005B1C102BF0D330880028EAD107226B4673
:1053500004F00F0000F13001392901D9C81DC1B294
:105360001046521E19542409002CF1D17E20985465
:105370000021A2F1010C06E081387D2802D86145A8
:1053800006D0491C491C914202D2685C2028F3D106
:10539000082A03D21046521C185C00E020208C46DC
:1053A000491C05F80C000829F2D302B070BD2DE9A4
:1053B000F0410D460468022D02D3A069A84201D82D
:1053C00001260AE04FF0FF362078012808D0F70DBB
:1053D00002282DD003283BD001263046BDE8F081BD
:1053E00005EB5507606A00EB5721204600F06FF986
:1053F0000028F2D1C7F30800204407F1010890F813
:105400003470606A00EB5821204600F060F90028F3
:10541000E3D1C8F30800204490F8340047EA0020A4
:1054200015F0010F01D00609D7E7C0F30B06D4E74A
:10543000606A00EB1521204600F049F90028CCD124
:1054400007EA45002044343000F0A4F80646C4E7DB
:10545000606A00EBD511204600F039F90028BCD174
:1054600007EA85002044343000F089F820F07046C7
:10547000B3E70020704710B404464FF0FF30D4F873
:1054800000C0BCF1000F0BD0614600E0491C0A7857
:10549000202A01D33A2AF9D10A783A2A02D00020E8
:1054A00010BC70479CF800300CF10102303B0A2B15
:1054B000F6D28A42F4D1002BF2D11846491C216061
:1054C00010BC704770B40022224CD0F800C004EB2E
:1054D00002131D68654507D15D688668B54203D132
:1054E0009B684569AB4202D0521C022AEFD3022AC4
:1054F00017D1002200E0521C022A04D204EB02134E
:105500001B68002BF7D1022A13D004EB0213C3F857
:1055100000C0D0F808C0C3F804C0406998600020FB
:10552000988149B104EB0210808928B170BC002039
:10553000704770BC0020704711B14FF4807003E0D9
:1055400004EB02108089401C04EB0211888170BCBE
:10555000501C70479C0D002070B506460C4604F1A7
:105560001A0000F017F805463078032805D104F139
:10557000140000F00FF845EA0045284670BDC178D8
:10558000827842EA0121427842EA0121007840EA29
:10559000012070474178007840EA01207047000000
:1055A00008B5FBF75DFFFEF77DF9FDF769FB2748BE
:1055B0000024016841F4800101600068224600F483
:1055C0008000009021463B20FBF7ACFF3B20FBF71F
:1055D0009BFF002211464520FBF7A4FF4520FBF767
:1055E00093FF002211464620FBF79CFF4620FBF765
:1055F0008BFFFDF7A7FBFDF7A5FAFDF7E7FA1548C6
:105600001349C0E900148460C4600461446184618A
:10561000FDF720FB104C012204F122012068FDF768
:1056200077F90EA0FEF7BAFB144D4FF47A7600BF5F
:10563000FAF76AFE28780028FAD13046FBF7EAFD2F
:105640000FA12068FEF752FBF2E70000303802405D
:10565000002C014000010020000000202D2D2D2DE8
:105660002D2D2D2D2D2D2D4150505F737461727491
:105670002D2D2D2D2D2D2D2D2D0A000070000020FB
:10568000D5E2CCF5CAB9D3C355736172745F444D8A
:1056900041CAE4B3F60A000010F8013B11F801CB4F
:1056A000A3EB0C03521E01D0002BF5D01846704717
:1056B000002A05D011F8013B00F8013B521EF9D138
:1056C0007047C9B200F8011B521EFBD1704770B57C
:1056D00004460D460026206BA84210D0204600F05C
:1056E000BDFA06465EB9607801232A4604F134010A
:1056F000FFF704F910B14FF0FF350126256330465E
:1057000070BD2DE9F04704460D4616460227022DCE
:1057100075D3A069A84272D920784FF0010A0128F8
:1057200006D040F2FF1802283CD0032867D14CE095
:1057300005EB5508606A00EB58212046FFF7C7FFCC
:10574000074638005BD1C8F30800204408F101097E
:10575000343015F0010F04D00178F2B262F31F115A
:1057600000E03146017084F803A0606A00EB592123
:105770002046FFF7ACFF0746380040D1C9F30800C8
:105780002044343015F0010F02D0C6F3071105E0B4
:105790000178C6F3032201F0F0011143017084F88F
:1057A00003A02CE0606A00EB15212046FFF78FFF75
:1057B0000746380023D108EA45002044B1B234300E
:1057C00000F0F3F984F803A019E0606A00EBD5114A
:1057D0002046FFF77CFF0746380010D108EA850015
:1057E000051905F13400FFF7CAFE66F31B0005F149
:1057F00034020146104600F0CEF984F803A0384682
:10580000BDE8F0872DE9F05F81460E469046737340
:105810000F20F07200203073002106F11A0000F012
:10582000C4F9A8F1010000EB800101EBC0050024E0
:105830002746DFF840B04FF6FF7A544503D028469C
:105840006D1C39F810401BF807002146304400F069
:10585000ACF90CB94FF6FF747F1C0D2FEDD35445F6
:1058600002D039F8150008B948F0400886F80080E1
:10587000BDE8F09F205D000810B5040006D0D4E913
:105880000110814208D14FF0000010BD07A0FEF7C3
:1058900085FA4FF0FF3010BD05D3204600F028F800
:1058A000D4E90112891A401A10BD00004552524F26
:1058B000523A20696E707574207262206973204EAE
:1058C000554C4C0A0000000070B5040007D000F0F1
:1058D0000FF805462046FFF7CFFF281A70BD034892
:1058E000FEF75CFA4FF0FF3070BD0000045900086D
:1058F00010B508B1006810BD02A0FEF74FFA4FF0D6
:10590000FF3010BD4552524F523A20696E70757487
:10591000207262206973204E554C4C0A0000000032
:1059200020B1C160C0E900218160704701A0FEF78D
:1059300035BA00004552524F523A20696E70757464
:10594000207262206973204E554C4C0A0000000002
:105950002DE9F04115460F4604004FF0FF360FD0F9
:1059600087B1D4E901018842204611D2FFF784FFB4
:10597000A84203D82046FFF77FFF054661680FE085
:1059800016A000E01CA0FEF709FA3046BDE8F08141
:10599000FFF7AEFFE26861688A1A801AA84208D948
:1059A0002A463846FAF73DFC60682844606028467D
:1059B000ECE72046FFF79CFFE26861688A1A861AC6
:1059C00032463846FAF72DFCE0686060AA1BB91928
:1059D0002046FFF7BDFF3044D8E700004552524F44
:1059E000523A20696E707574207262206973204E7D
:1059F000554C4C0A000000004552524F523A206963
:105A00006E7075742064617461206973204E554C0A
:105A10004C0A00002DE9F04115460F4604004FF0F6
:105A2000FF360AD05FB1FFF74FFFA84209D81FA089
:105A3000FEF7B4F93046BDE8F08121A0F8E726A0D2
:105A4000F6E7D4E90110814229D82046FFF750FF3C
:105A50000146D4E90202821A8E1AB54212D82A46A9
:105A60003946FAF7DEFBA0682844A0602046FFF71D
:105A70003FFF0146E068A2680144914200D1A06066
:105A80002846D8E732463946FAF7CBFBE068A060F3
:105A9000AA1BB9192046FFF7BDFF3044CBE72A46C1
:105AA0003946FAF7BEFBA0682844E8E74552524F52
:105AB000523A206E6F206D656D6F7279200A00007A
:105AC0004552524F523A20726220697320656D70C0
:105AD0007479200A000000004552524F523A206467
